{
    "_format": "hh-sol-artifact-1",
    "contractName": "Transcations",
    "sourceName": "contracts/Transactions.sol",
    "abi": [
        {
            "anonymous": false,
            "inputs": [
                {
                    "indexed": false,
                    "internalType": "address",
                    "name": "from",
                    "type": "address"
                },
                {
                    "indexed": false,
                    "internalType": "address",
                    "name": "reciever",
                    "type": "address"
                },
                {
                    "indexed": false,
                    "internalType": "uint256",
                    "name": "amount",
                    "type": "uint256"
                },
                {
                    "indexed": false,
                    "internalType": "string",
                    "name": "message",
                    "type": "string"
                },
                {
                    "indexed": false,
                    "internalType": "uint256",
                    "name": "timestamp",
                    "type": "uint256"
                },
                {
                    "indexed": false,
                    "internalType": "string",
                    "name": "keyword",
                    "type": "string"
                }
            ],
            "name": "Transfer",
            "type": "event"
        },
        {
            "inputs": [
                {
                    "internalType": "address payable",
                    "name": "reciever",
                    "type": "address"
                },
                {
                    "internalType": "uint256",
                    "name": "amount",
                    "type": "uint256"
                },
                {
                    "internalType": "string",
                    "name": "message",
                    "type": "string"
                },
                {
                    "internalType": "string",
                    "name": "keyword",
                    "type": "string"
                }
            ],
            "name": "addToBlockChain",
            "outputs": [],
            "stateMutability": "nonpayable",
            "type": "function"
        },
        {
            "inputs": [],
            "name": "getAllTranscations",
            "outputs": [
                {
                    "components": [
                        {
                            "internalType": "address",
                            "name": "sender",
                            "type": "address"
                        },
                        {
                            "internalType": "address",
                            "name": "reciever",
                            "type": "address"
                        },
                        {
                            "internalType": "uint256",
                            "name": "amount",
                            "type": "uint256"
                        },
                        {
                            "internalType": "string",
                            "name": "message",
                            "type": "string"
                        },
                        {
                            "internalType": "uint256",
                            "name": "timestamp",
                            "type": "uint256"
                        },
                        {
                            "internalType": "string",
                            "name": "keyword",
                            "type": "string"
                        }
                    ],
                    "internalType": "struct Transcations.TransferStruct[]",
                    "name": "",
                    "type": "tuple[]"
                }
            ],
            "stateMutability": "view",
            "type": "function"
        },
        {
            "inputs": [],
            "name": "getTranscationCount",
            "outputs": [
                {
                    "internalType": "uint256",
                    "name": "",
                    "type": "uint256"
                }
            ],
            "stateMutability": "view",
            "type": "function"
        }
    ],
    "bytecode": "0x608060405234801561001057600080fd5b50610a33806100206000396000f3fe608060405234801561001057600080fd5b50600436106100415760003560e01c80634c08488114610046578063b2da096014610064578063d18c437b14610080575b600080fd5b61004e61009e565b60405161005b9190610552565b60405180910390f35b61007e60048036038101906100799190610727565b6100a3565b005b610088610265565b60405161009591906107d5565b60405180910390f35b606090565b60016000808282546100b5919061081f565b9250508190555060016040518060c001604052803373ffffffffffffffffffffffffffffffffffffffff1681526020018673ffffffffffffffffffffffffffffffffffffffff16815260200185815260200184815260200142815260200183815250908060018154018082558091505060019003906000526020600020906006020160009091909190915060008201518160000160006101000a81548173ffffffffffffffffffffffffffffffffffffffff021916908373ffffffffffffffffffffffffffffffffffffffff16021790555060208201518160010160006101000a81548173ffffffffffffffffffffffffffffffffffffffff021916908373ffffffffffffffffffffffffffffffffffffffff1602179055506040820151816002015560608201518160030190805190602001906101f492919061026a565b506080820151816004015560a082015181600501908051906020019061021b92919061026a565b5050507f416cfa4330a4565f45c2fd2dd4826a83a37443aba2ce6f79477c7355afac35fa3385858542866040516102579695949392919061092d565b60405180910390a150505050565b600090565b828054610276906109cb565b90600052602060002090601f01602090048101928261029857600085556102df565b82601f106102b157805160ff19168380011785556102df565b828001600101855582156102df579182015b828111156102de5782518255916020019190600101906102c3565b5b5090506102ec91906102f0565b5090565b5b808211156103095760008160009055506001016102f1565b5090565b600081519050919050565b600082825260208201905092915050565b6000819050602082019050919050565b600073ffffffffffffffffffffffffffffffffffffffff82169050919050565b600061036482610339565b9050919050565b61037481610359565b82525050565b6000819050919050565b61038d8161037a565b82525050565b600081519050919050565b600082825260208201905092915050565b60005b838110156103cd5780820151818401526020810190506103b2565b838111156103dc576000848401525b50505050565b6000601f19601f8301169050919050565b60006103fe82610393565b610408818561039e565b93506104188185602086016103af565b610421816103e2565b840191505092915050565b600060c083016000830151610444600086018261036b565b506020830151610457602086018261036b565b50604083015161046a6040860182610384565b506060830151848203606086015261048282826103f3565b91505060808301516104976080860182610384565b5060a083015184820360a08601526104af82826103f3565b9150508091505092915050565b60006104c8838361042c565b905092915050565b6000602082019050919050565b60006104e88261030d565b6104f28185610318565b93508360208202850161050485610329565b8060005b85811015610540578484038952815161052185826104bc565b945061052c836104d0565b925060208a01995050600181019050610508565b50829750879550505050505092915050565b6000602082019050818103600083015261056c81846104dd565b905092915050565b6000604051905090565b600080fd5b600080fd5b600061059382610339565b9050919050565b6105a381610588565b81146105ae57600080fd5b50565b6000813590506105c08161059a565b92915050565b6105cf8161037a565b81146105da57600080fd5b50565b6000813590506105ec816105c6565b92915050565b600080fd5b600080fd5b7f4e487b7100000000000000000000000000000000000000000000000000000000600052604160045260246000fd5b610634826103e2565b810181811067ffffffffffffffff82111715610653576106526105fc565b5b80604052505050565b6000610666610574565b9050610672828261062b565b919050565b600067ffffffffffffffff821115610692576106916105fc565b5b61069b826103e2565b9050602081019050919050565b82818337600083830152505050565b60006106ca6106c584610677565b61065c565b9050828152602081018484840111156106e6576106e56105f7565b5b6106f18482856106a8565b509392505050565b600082601f83011261070e5761070d6105f2565b5b813561071e8482602086016106b7565b91505092915050565b600080600080608085870312156107415761074061057e565b5b600061074f878288016105b1565b9450506020610760878288016105dd565b935050604085013567ffffffffffffffff81111561078157610780610583565b5b61078d878288016106f9565b925050606085013567ffffffffffffffff8111156107ae576107ad610583565b5b6107ba878288016106f9565b91505092959194509250565b6107cf8161037a565b82525050565b60006020820190506107ea60008301846107c6565b92915050565b7f4e487b7100000000000000000000000000000000000000000000000000000000600052601160045260246000fd5b600061082a8261037a565b91506108358361037a565b9250827fffffffffffffffffffffffffffffffffffffffffffffffffffffffffffffffff0382111561086a576108696107f0565b5b828201905092915050565b61087e81610359565b82525050565b6000819050919050565b60006108a96108a461089f84610339565b610884565b610339565b9050919050565b60006108bb8261088e565b9050919050565b60006108cd826108b0565b9050919050565b6108dd816108c2565b82525050565b600082825260208201905092915050565b60006108ff82610393565b61090981856108e3565b93506109198185602086016103af565b610922816103e2565b840191505092915050565b600060c0820190506109426000830189610875565b61094f60208301886108d4565b61095c60408301876107c6565b818103606083015261096e81866108f4565b905061097d60808301856107c6565b81810360a083015261098f81846108f4565b9050979650505050505050565b7f4e487b7100000000000000000000000000000000000000000000000000000000600052602260045260246000fd5b600060028204905060018216806109e357607f821691505b602082108114156109f7576109f661099c565b5b5091905056fea2646970667358221220b268d61f9c30569a0fc38e207ae45facf305816d9d9655ff7c366cac2fb0047f64736f6c63430008090033",
    "linkReferences": {},
    "deployedLinkReferences": {}
}